:100000000C946C000C9494000C9494000C94940048
:100010000C9494000C9494000C9468050C94940037
:100020000C9494000C9494000C9494000C94940000
:100030000C9494000C9494000C9494000C949400F0
:100040000C94E8020C9494000C94E9000C94320394
:100050000C9494000C9494000C9494000C949400D0
:100060000C9494000C949400080A080A080A170AD1
:10007000B70AC50A080A080A170AB70A00000000EA
:10008000250028002B0000000000240027002A0083
:1000900000000000230026002900040404040404D6
:1000A0000404020202020202030303030303010227
:1000B00004081020408001020408102001020408F6
:1000C00010200000000800020100000304070000E7
:1000D0000000000000004D0F11241FBECFEFD8E03C
:1000E000DEBFCDBF11E0A0E0B1E0E8E8F1E202C080
:1000F00005900D92AC36B107D9F722E0ACE6B1E03D
:1001000001C01D92A839B207E1F710E0CCE6D0E0BB
:1001100004C02197FE010E947A0FCB36D107C9F7A0
:100120000E94430E0C94C2100C940000FC01918DAF
:10013000828D981761F0828DDF01A80FB11D5D9649
:100140008C91928D9F5F9F73928F90E008958FEFB7
:100150009FEF0895FC01918D828D981731F0828D6B
:10016000E80FF11D858D90E008958FEF9FEF0895C2
:10017000FC01918D228D892F90E0805C9F4F821B26
:1001800091098F739927089580E090E0892B29F0D9
:100190000E94DC0281110C9400000895E0911C0281
:1001A000F0911D028081811103C08FEF9FEF0CC081
:1001B000E0911C02F0911D020580F681E02D068081
:1001C000F781E02D82819381909313028093120234
:1001D00008951F920F920FB60F9211242F938F93B1
:1001E0009F93EF93FF93E0918101F09182018081D1
:1001F000E0918701F091880182FD12C09081809189
:100200008A018F5F8F7320918B01821751F0E091EB
:100210008A01F0E0EF58FE4F958F80938A0101C06C
:100220008081FF91EF919F918F912F910F900FBE41
:100230000F901F901895FC01848DDF01A80FB11D50
:10024000A35ABF4F2C91848D90E001968F7399270C
:10025000848FA689B7892C93A089B1898C918064F9
:100260008C93938D848D981306C00288F389E02DBA
:1002700080818F7D80830895EF92FF920F931F936B
:10028000CF93DF93EC0181E0888F9B8D8C8D981349
:1002900005C0E889F989808185FD24C0F62E0B8D83
:1002A00010E00F5F1F4F0F731127E02E8C8DE812A7
:1002B0000CC00FB607FCFACFE889F989808185FF69
:1002C000F5CFCE010E941B01F1CF8B8DFE01E80F0F
:1002D000F11DE35AFF4FF0820B8FEA89FB89808181
:1002E000806207C0EE89FF896083E889F98980818F
:1002F0008064808381E090E0DF91CF911F910F9126
:10030000FF90EF900895CF93DF93EC01888D8823C1
:10031000C9F0EA89FB89808185FD05C0A889B98972
:100320008C9186FD0FC00FB607FCF5CF808185FF4D
:10033000F2CFA889B9898C9185FFEDCFCE010E94BB
:100340001B01E7CFDF91CF910895259A2D9A2FEFCA
:1003500080E792E0215080409040E1F700C000002B
:100360001D9AF5CF8AE090E00E941F09FBCF45E27D
:1003700050E066E171E081E791E00E94B10242E065
:1003800050E06CE371E081E791E00E94B10284E605
:1003900090E00E941F09EBCFC0EBD0E0FE0124915A
:1003A0000CE910E0F80184918823C9F090E0880FEF
:1003B000991FFC01EA57FF4FA591B49184589F4FB4
:1003C000FC01459154913FB7F8949C91822F809500
:1003D00098239C93FA019081892380833FBF34EC5A
:1003E000E32E30E0F32EF7019491FE018491F801A1
:1003F0008491882391F1992339F1933091F038F465
:100400009130A9F0923001F594B59F7D12C09730DC
:1004100091F09830A1F09430B9F4909180009F7DD4
:1004200003C0909180009F77909380000DC094B599
:100430009F7794BD09C09091B0009F7703C09091C1
:10044000B0009F7D9093B00090E0880F991F805777
:100450009F4FFC01A591B4918C9181E090E00E94A6
:100460001F09C1CF80916E01882349F10E94620566
:10047000C09127020E94EE06CC23A1F30FB6F89498
:100480000F92E0912C02F0912D02C681D781CE010E
:1004900002960E946B0580916002815080936002F9
:1004A00080916E01815080936E010F900FBE8F89F5
:1004B000988D0E944909CE010E944909D3CF8091AD
:1004C0003902823010F00E9431060E94C400CACF67
:1004D0000F931F93E1E7F1E0A089B18982E08C934B
:1004E000A485B5851C92A685B7858FEC8C93108E5C
:1004F000A489B58986E08C93A289B3898C918061A7
:100500008C93A289B3898C9188608C93A289B389DA
:100510008C9180688C930288F389E02D80818F7D97
:10052000808300E010E022E040E850E06FE371E0FB
:100530008CEC91E00E94A90C21E040E850E068E4D6
:1005400071E087EB91E00E94A90C21E040E850E0C7
:1005500064E571E082EB91E00E94A90C1F910F917C
:100560000895CF92DF92EF92FF920F931F93CF9354
:10057000DF936C017A018B01C0E0D0E0CE15DF057E
:1005800089F0D8016D918D01D601ED91FC9101901A
:10059000F081E02DC6010995892B11F47E0102C07E
:1005A0002196ECCFC701DF91CF911F910F91FF9062
:1005B000EF90DF90CF90089581E791E00E94B8001E
:1005C00021E0892B09F420E0822F08950E94AD10CC
:1005D0001F920F920FB60F9211242F933F938F9378
:1005E0009F93AF93BF9380917C0290917D02A091E5
:1005F0007E02B0917F0230917B0223E0230F2D37E2
:1006000020F40196A11DB11D05C026E8230F029616
:10061000A11DB11D20937B0280937C0290937D02EB
:10062000A0937E02B0937F0280917702909178022E
:10063000A0917902B0917A020196A11DB11D80931B
:10064000770290937802A0937902B0937A02BF91D7
:10065000AF919F918F913F912F910F900FBE0F906F
:100660001F9018951F920F920FB60F9211242F937F
:100670003F934F935F936F937F938F939F93AF932A
:10068000BF93EF93FF9381E791E00E941B01FF91DD
:10069000EF91BF91AF919F918F917F916F915F91FA
:1006A0004F913F912F910F900FBE0F901F90189573
:1006B0000FB6F8940F9280911702909118020F9044
:1006C0000FBE08950FB6F8940F92FC01928D0F9013
:1006D0000FBE81E0911180E008950F920FB6F8945B
:1006E0000F921F9211242F923F924F925F926F921E
:1006F0007F928F929F92AF92BF92CF92DF92EF92B2
:10070000FF920F931F932F933F934F935F936F939A
:100710007F938F939F93AF93BF93CF93DF93EF9389
:10072000FF93A0915E02B0915F020DB60D920EB6DE
:100730000D9213BE809114028111F1C080911702B5
:1007400090911802019690931802809317020097D7
:1007500099F520911C0230911D0240911A0250918E
:100760001B0250931D0240931C0230931B022093E6
:100770001A02209119022F5F20931902E0911C02A6
:10078000F0911D022081211107C02FEF3FEF309320
:1007900013022093120210C0E0911C02F0911D027E
:1007A0000580F681E02D0680F781E02D22813381DE
:1007B00030931302209312022091120230911302FF
:1007C0008217930710F420E09AC020E019E0E0912E
:1007D0001C02F0911D023081311107C08FEF9FEF95
:1007E00090931302809312028AC0E0911C02F09150
:1007F0001D020580F681E02D0680F781E02D428103
:1008000053818417950728F45093130240931202E2
:1008100076C0AF014E5F5F4FA285B385648175815D
:10082000E680F780EB01FD82EC82C681D7817B8375
:100830006A8311966D917C9112976417750721F464
:100840001296DC93CE931197138612863C91315009
:100850003C93A489B5891097F1F066857785E08887
:10086000F188EB01FD82EC82C089D1897B836A83A8
:100870001196ED90FC901297BF01645F7F4FE616D2
:10088000F70621F41296DC93CE931197158A148AF9
:100890003C9131503C93A68930915D023A1710F497
:1008A000A0935D021A9FD0011124BD01675C7D4FAA
:1008B0007B01DB011196CD91DC911297D583C48326
:1008C0006C817D81778366836C817D81DB011396EA
:1008D0005C934E9312975D834C83F386E286E70127
:1008E00038813F5F3883A0915E02B0915F024689F4
:1008F00056963C91431708F46ACF21E068CFE09107
:100900005E02F0915F02E689D9E0ED9FF0011124CB
:10091000E75CFD4F8081823040F021E006C080918D
:100920006C018F5F80936C0120E080916D018111DB
:1009300003C0222309F466C080911402882321F0A9
:1009400081E080936D015EC010926D01A0915E0206
:10095000B0915F02E0915E02F0915F022D913C91B7
:100960008789908D82179307A8F080915E029091FD
:100970005F0280915E0290915F02259A2D9A2FEF7F
:1009800067EA71E6215060407040E1F700C0000066
:100990001D9AF5CF80915D0269E001C08150482F1A
:1009A00050E0649F9001659F300D1124F901E75CD0
:1009B000FD4F9081992391F3A181B28112960D9000
:1009C000BC91A02DB283A183245C3D4FA217B30735
:1009D00031F412962D913C9113973283218399E043
:1009E000949FF001959FF00D1124E75CFD4F01806D
:1009F000F281E02D2681378130935F0220935E02E1
:100A000080935D02A0915E02B0915F02CD91CDBF57
:100A1000DD91DEBFFF91EF91DF91CF91BF91AF915B
:100A20009F918F917F916F915F914F913F912F9106
:100A30001F910F91FF90EF90DF90CF90BF90AF90FC
:100A40009F908F907F906F905F904F903F902F90EE
:100A50001F900F900FBE0F900895FC010FB6F894F1
:100A60000F928091170290911802DB012D913C9119
:100A70002F3FBFEF3B0701F1B0911902A0814181E7
:100A80005281BA1719F084179507C0F4DC01A41B32
:100A9000B50BA217B30790F4481B590B240F351F51
:100AA000DB012D933C938091190280838091170282
:100AB000909118029283818380E001C081E00F90C1
:100AC0000FBE0895809114028F5F809314020895E1
:100AD0000E946D031895CF93DF93FC01A085B1852B
:100AE0008281938124813581EC013D832C83C481F3
:100AF000D5819B838A8311968D919C9112978E1735
:100B00009F0721F41296DC93CE93119711861086DD
:100B10008C9181508C93DF91CF910895CF93DF9387
:100B20009C01FB01DC011196CD91DC911297D383DE
:100B3000C2838C819D81958384838C819D81DC011E
:100B400013967C936E9312977D836C8331872087F5
:100B5000F90180818F5F8083DF91CF9108950F939A
:100B60001F93CF93DF93DC011596ED91FC911697BF
:100B7000C681D7818E01045F1F4FC8010E946B059B
:100B800080911402811114C00A501109C8010E94F9
:100B90006B059E8980915D02891710F490935D0228
:100BA000B9E09B9FC0011124B801875C9D4F03C031
:100BB000B80180E392E00E948E05E0915E02F09120
:100BC0005F029E898689891720F481E080936D01F8
:100BD00001C080E0DF91CF911F910F910895EF92B6
:100BE000FF920F931F93CF93DF93EC010FB6F8940E
:100BF0000F921E8D7C0181E1E80EF11C01E01116BF
:100C00005CF48989882341F0C7010E94AF058111F6
:100C100000936D011150F3CF8FEF8E8F0F900FBEA9
:100C20000FB6F8940F921D8D7E0188E0E80EF11C3E
:100C300001E011165CF48885882341F0C7010E9409
:100C4000AF05811100936D011150F3CF8FEF8D8FA0
:100C50000F900FBEDF91CF911F910F91FF90EF90FA
:100C600008950F920FB6F8940F921F9211242F92AD
:100C70003F924F925F926F927F928F929F92AF922C
:100C8000BF92CF92DF92EF92FF920F931F932F9319
:100C90003F934F935F936F937F938F939F93AF9304
:100CA000BF93CF93DF93EF93FF93A0915E02B09138
:100CB0005F020DB60D920EB60D928091140288233C
:100CC00021F081E080936D015EC010926D01A091D2
:100CD0005E02B0915F02E0915E02F0915F022D91A1
:100CE0003C918789908D82179307A8F080915E02CE
:100CF00090915F0280915E0290915F02259A2D9AF9
:100D00002FEF87EA91E6215080409040E1F700C044
:100D100000001D9AF5CF80915D0269E001C081500D
:100D2000482F50E0649F9001659F300D1124F90118
:100D3000E75CFD4F9081992391F3A181B2811296D6
:100D40000D90BC91A02DB283A183245C3D4FA217CE
:100D5000B30731F412962D913C911397328321837E
:100D600099E0949FF001959FF00D1124E75CFD4FF1
:100D70000180F281E02D2681378130935F0220933C
:100D80005E0280935D02A0915E02B0915F02CD9100
:100D9000CDBFDD91DEBFFF91EF91DF91CF91BF918C
:100DA000AF919F918F917F916F915F914F913F9103
:100DB0002F911F910F91FF90EF90DF90CF90BF90F8
:100DC000AF909F908F907F906F905F904F903F90EB
:100DD0002F901F900F900FBE0F9008958F929F92AB
:100DE000AF92BF92CF92DF92EF92FF920F931F9339
:100DF000CF93DF930FB6F8940F9280911402815035
:100E00008093140280911402882311F080E0F2C0D4
:100E1000809160028823D1F3C0E0D0E029E0F22E77
:100E2000EE24E39480913002882351F1E091350261
:100E3000F0913602C681D781CE010C960E946B05D7
:100E40008E010E5F1F4FC8010E946B059E89809125
:100E50005D02891710F490935D02F99EC001112480
:100E6000B801875C9D4F0E948E05E0915E02F09173
:100E70005F029E8986899817A8F2E0926D01D2CF11
:100E8000CD2B11F00E94CE00E0906C01EE2009F411
:100E9000A9C089E0B82EAA24A394CC24CA94DC2C3F
:100EA0008091140281118CC0C0911702D091180258
:100EB0002196D0931802C09317022097B9F480911D
:100EC0001C0290911D0220911A0230911B02309356
:100ED0001D0220931C0290931B0280931A028091A2
:100EE00019028F5F809319020E94CE008091120236
:100EF00090911302F12CC817D90708F451C0E09162
:100F00001C02F0911D028081811105C0D092130254
:100F1000C092120245C0E0911C02F0911D020580B2
:100F2000F681E02D06811781D80112968D919C9152
:100F30001397C817D90728F49093130280931202CD
:100F40002FC04801B2E08B0E911CC4010E946B05BA
:100F5000F80184899589892B21F0C8010C960E949B
:100F60006B05D80156968C9190915D02981710F4FC
:100F700080935D02B89EC0011124B401875C9D4F2F
:100F80000E948E05E0915E02F0915F02D8015696B4
:100F90009C918689981708F4B2CFFF24F394AFCFC1
:100FA000E0915E02F0915F02E689BE9EF00111249D
:100FB000E75CFD4F8081823048F0FF24F39406C047
:100FC00080916C018F5F80936C01F12C80916D0199
:100FD000811101C0F110A0926D01EA94E11060CF7F
:100FE00010926C0180916D01882309F40FCF0E944B
:100FF000310681E00F900FBEDF91CF911F910F91CD
:10100000FF90EF90DF90CF90BF90AF909F908F9028
:1010100008950F931F93CF93DF938C01FB01808181
:1010200091818F3F2FEF920721F4E801AF81B885BE
:101030000EC0D801139612962D913C911397E90199
:10104000488159818417950710F0D901F4CF129681
:101050008D919C91139793838283EC01FD83EC83A4
:10106000B583A4831396FC93EE93129711870087A0
:10107000F80180818F5F8083DF91CF911F910F9165
:101080000895EF92FF920F931F93CF93DF93E09118
:101090001002F09111028081882369F10580F681A8
:1010A000E02D00811181C681D7817E0182E0E80EAA
:1010B000F11CC7010E946B05E989FA89CE010995E7
:1010C0008E85813021F72C853D85200F311F021739
:1010D000130760F43B832A83D987C887B7018091BF
:1010E0001002909111020E940908D1CFB801CE01DF
:1010F0000E941A0ECCCF80910E0290910F02909315
:10110000110280931002F0930F02E0930E02DF9120
:10111000CF911F910F91FF90EF900895FC01738381
:101120006283918780874617570778F0421B530BDD
:101130008485958548175907C8F4BF016E5F7F4FB6
:1011400080910E0290910F020DC04217530718F4C0
:101150006217730758F4BF016E5F7F4F80911002D2
:10116000909111020E94090880E0089581E008959D
:10117000EF92FF920F931F93CF93DF931F92CDB700
:10118000DEB77C01009117021091180280915E0277
:1011900090915F02029669830E946B0569818FEFCF
:1011A000E816F80699F4662389F060915E02709162
:1011B0005F026E5F7F4F8EE192E00F90DF91CF91E3
:1011C0001F910F91FF90EF900C948E05E00EF11E91
:1011D000E0915E02F0915F02F382E28260915E0232
:1011E00070915F02E016F10678F480911A029091F6
:1011F0001B026E5F7F4F0F90DF91CF911F910F9178
:10120000FF90EF900C94090880911C0290911D02B0
:101210006E5F7F4F0E940908809112029091130225
:10122000E816F90620F4F0921302E09212020F90F1
:10123000DF91CF911F910F91FF90EF900895CF9381
:10124000DF9300D0CDB7DEB7009719F40E943106C6
:101250000DC089839A830E94620560E089819A812A
:101260000E94B8080E94EE06882381F30F900F9029
:10127000DF91CF910895FC010396928381832FEF34
:101280003FEF3483238396838583908787831082FF
:101290000895CF93DF93009751F0EC010E9462050F
:1012A000CE010E941510DF91CF910C94EE06DF91D4
:1012B000CF910895CF93DF93CDB7DEB72C970FB6BC
:1012C000F894DEBF0FBECDBFE0911002F091110285
:1012D000FF24F3948081882339F0F12C0580F68176
:1012E000E02D0081118102C000E010E00E94620543
:1012F0000E9458036C0180916F0190917001C81693
:10130000D90620F40E94410881E001C080E0D0921B
:101310007001C0926F01811178C0F11034C0C01605
:10132000D106C8F10E94EE06E0911002F091110280
:101330000580F681E02DE680F780C70102960E94C5
:101340006B05D7011E968C911E97813089F41C96EF
:101350006D917C911D97600F711F9801A601C701C7
:101360000E948E08882321F0B801C7010E941A0E3E
:10137000D7015196ED91FC915297C701099594E0E0
:10138000C92ED12C52C0E0910E02F0910F02BB2465
:10139000B39480818111B12CE0901502F090160277
:1013A0000FB6F8940F92F701858D8F3F09F4158ED3
:1013B000D7015E968C915E978F3F11F45E961C92DA
:1013C0000F900FBEF701828D811115C060915E02F2
:1013D00070915F02645F7F4FC70141960E948E0546
:1013E000B11004C0C8018C199D0902C08FEF9FEF96
:1013F0006B2D0E94B808C7010E94EF050E94EE06FF
:101400008111BDCF0E943106BACF0E94EE06B7CF40
:10141000EA80FB80F801648575856E0D7F1D97015C
:10142000C8010E948E0881118DC089E0782E00913C
:101430001502109116021A86198680E05801B1E152
:10144000AB0EB11C0FB6F8940F92F801F28CFF208E
:1014500009F49FC0448D4423C9F050E086819781F0
:10146000840F951F97838683228133818217930788
:1014700020F08081918197838683D80116966D91A3
:101480007C911797CE0101960E94B210FA94F80150
:10149000F28E80819181892BB1F480915E029091CE
:1014A0005F02892B39F0E0915E02F0915F0282A128
:1014B0008F5F82A380915E0290915F02D8011396A4
:1014C0009C938E931297F8018085882339F0C80188
:1014D00008960E94AF0581110E9431060F900FBE41
:1014E000898087FCA4CF0C811D81D8011A968D912B
:1014F0009C911B97892B21F0C80102960E946B05D5
:101500000E945803AC0180916F01909170014817BF
:10151000590730F44B875C870E9441085C854B85F6
:101520005093700140936F01882D880C990BAA0B82
:10153000BB0B8A30910508F07ACFFC01EC5CFF4FC1
:101540000C947A0FD8015196ED91FC915297C801F5
:101550000995F8018685813009F067CF84859585E6
:10156000B701680F791FC8010E941A0E5ECF6A8109
:101570007B81D8011D967C936E931C97640F751F19
:101580009A01C8010E948E0850CFC8010E944909E3
:101590004CCF29853A85232B19F40F900FBE94CE9A
:1015A000811109C0809119028E8380911702909158
:1015B000180298878F830F900FBE0E9462050FB6A6
:1015C000F8940F92D8015D968C915D978F3F11F43E
:1015D0005D961C92F801868D8F3F09F4168E0F9050
:1015E0000FBEBE01675F7F4FCE0106960E942D059C
:1015F000811187C0C8010E946203882309F47BC05F
:10160000D8018D919C91892B09F05AC00FB6F8949E
:101610000F92F801E280F380E114F10409F44EC066
:10162000D70156968C915697E0915E02F0915F0239
:101630009689891708F042C01C962D913C911D9700
:1016400037FD0CC0E0915E02F0915F029689960131
:10165000291B31091D963C932E931C97789EC0013F
:101660001124875C9D4FF7012285338528173907A0
:10167000F1F44701F2E08F0E911CC4010E946B054A
:10168000E0915E02F0915F022689D70156962C9375
:1016900080915D02821710F420935D02729EC0015A
:1016A0001124B401875C9D4F0E948E0507C0E09114
:1016B0005E02F0915F028689F701868B0F900FBE64
:1016C000E984FA8460915E0270915F02645F7F4FEB
:1016D000C5010E94090861E0C7010E94B808C8015D
:1016E0000E94EF050E94EE06882311F081E0AACE49
:1016F0000E943106FBCFC8010E94EF050E94EE0652
:10170000F5CFC8010E94EF050E94EE06C8010E94B5
:101710006203882359F3D8CD0F931F93CF93DF93A0
:1017200000D0CDB7DEB789839A830E946205898194
:101730009A810E94800F8C010E94EE06011511050E
:1017400011F40E94A501C8010F900F90DF91CF9175
:101750001F910F910895AF92BF92CF92DF92EF92B7
:10176000FF920F931F93CF93DF9300D000D01F926F
:10177000CDB7DEB78C017B011D821C8290E0580141
:1017800088E0A80EB11C0FB6F8940F92F801228DD4
:10179000838D281708F06DC0D28C448D41113FC055
:1017A00080819181892B09F052C0F801E280F38099
:1017B000E114F10411F480E02EC0F70182A1815000
:1017C00082A3268991A12917B1F38111F4CF570182
:1017D000F2E0AF0EB11CC5010E946B05F70191A1AB
:1017E000968B492F50E024E030E0241B350B3587E1
:1017F000248780915D02891710F490935D0229E09F
:10180000249FC001259F900D1124B501875C9D4F39
:101810000E948E0581E0F8011382128219C050E007
:10182000B701F801848195810E94B210F801248DDE
:1018300084819581820F911D9583848322813381D8
:101840008217930720F0808191819583848380E0C3
:10185000D394F801D28E9189992321F0C801419641
:101860000E94AF0581110E9431060F900FBE81E0EA
:1018700060C02C813D81232B19F40F900FBE58C0FE
:10188000911109C08091190289838091170290916A
:1018900018029B838A830F900FBE0E9462050FB6C9
:1018A000F8940F92F801858D8F3F09F4158EF80199
:1018B000868D8F3F09F4168E0F900FBEBE016C5FB0
:1018C0007F4FCE0101960E942D0581112CC00FB6CD
:1018D000F8940F92F801928D838D0F900FBE98139C
:1018E0001CC0CC80DD8020915E0230915F02B90186
:1018F000645F7F4FC5010E94090861E0C6010E9434
:10190000B808C8010E94EF050E94EE06882311F076
:1019100091E039CF0E943106FBCFC8010E94EF054C
:101920000E94EE06F5CFC8010E94EF050E94EE0668
:1019300080E00F900F900F900F900F90DF91CF915C
:101940001F910F91FF90EF90DF90CF90BF90AF90DD
:1019500008957F928F929F92AF92BF92CF92DF9223
:10196000EF92FF920F931F93CF93DF93982EC92E80
:10197000762E872EEA01D22ECA010E948C0B5C01C2
:10198000892B09F448C188E290E00E948C0B7C010D
:101990000097D9F0DC015896BC92AE925797AE01F1
:1019A00065EA70E0C5010E94BB102197D7015796E8
:1019B000ED91FC915897EC0FFD1FB701675E7F4FCB
:1019C000A72DB82DCD01089607C0C5010E94490971
:1019D00022C1A817B90749F09D014D91EB01499328
:1019E000BE01E90128812111F4CFD70190961C9204
:1019F0002D2D243008F023E0E7012E8B29A31AA215
:101A00001B861A861D8A1C8AF986E88684E090E087
:101A1000821B91099D878C87FB8AEA8A1BA21CA2E4
:101A20001DA21EA21FA291E19083DF01119782E205
:101A30008C93119723E32C9311979C921197CC923E
:101A400011971C92119720E82C9311971C921197D3
:101A500022E02C93119723E02C93119724E02C93F0
:101A6000119725E02C93119726E02C93119727E0EE
:101A70002C93119728E02C93119729E02C93119720
:101A800020E12C9311979C93119792E19C931197CD
:101A900093E19C93119794E19C93119795E19C930A
:101AA000119796E19C93119797E19C93119798E178
:101AB0009C93119799E19C93119790E29C931197B5
:101AC00091E29C9311978C93119783E28C931197D9
:101AD0001C9211971C92119786E28C93119787E2C2
:101AE0008C93119788E28C93119789E28C931197CC
:101AF00080E38C93119781E38C93B697F983E88305
:101B00000115110519F0F801F182E0820FB6F89481
:101B10000F92809160028F5F8093600280915E02DD
:101B200090915F02892BD1F5F0925F02E0925E0204
:101B300080916002813009F043C089E392E00E9405
:101B40003B0982E492E00E943B098BE492E00E9410
:101B50003B0984E592E00E943B0989E892E00E94FB
:101B60003B0980E892E00E943B0980E392E00E94FA
:101B70003B0987E292E00E943B098EE192E00E94DD
:101B80003B0989E892E090931D0280931C0280E853
:101B900092E090931B0280931A0212C080919302EC
:101BA00081110EC0E0915E02F0915F029689D7012B
:101BB00056968C91891720F0F0925F02E0925E02B7
:101BC000809192028F5F80939202E7018E899091BB
:101BD0005D02981710F480935D02D9E08D9FC001DB
:101BE0001124B7016E5F7F4F875C9D4F0E948E0569
:101BF0000F900FBE80919302882359F0E0915E020E
:101C0000F0915F029689F7018689981710F40E9477
:101C1000310681E001C08FEFDF91CF911F910F91CD
:101C2000FF90EF90DF90CF90BF90AF909F908F90FC
:101C30007F900895CF93DF9300D000D01F92CDB74F
:101C4000DEB79C018091150290911602009761F019
:101C500019827B836A833D832C8320919302222304
:101C600029F02091140202C080E005C0BE016F5F20
:101C70007F4F0E94AB0B0F900F900F900F900F9023
:101C8000DF91CF910895789484B5826084BD84B546
:101C9000816084BD85B5826085BD85B5816085BD67
:101CA00080916E00816080936E001092810080911F
:101CB00081008260809381008091810081608093A7
:101CC0008100809180008160809380008091B100CC
:101CD00084608093B1008091B00081608093B000F7
:101CE00080917A00846080937A0080917A0082608B
:101CF00080937A0080917A00816080937A0080914D
:101D00007A00806880937A001092C1000E94680275
:101D100005E712E020E040EC50E06EE571E082E380
:101D200092E00E94A90C813009F0B0C00FB6F8947F
:101D30000F928091150290911602892B09F04BC0E9
:101D40008AE692E00E943B0981E692E00E943B090C
:101D50008AE692E0909311028093100281E692E06D
:101D600090930F0280930E0281E590E00E948C0B0D
:101D7000EC01009761F14F96998388838AE08B8FFD
:101D800085E08C8F0FB6F8940F92288139819B8D56
:101D90004C8D949FC0011124B901680F791F7B837A
:101DA0006A831A8E3D832C83841B9109820F931FB3
:101DB0009F838E838FEF8D8F8E8FCE0108960E942A
:101DC0003B09CE0141960E943B090F900FBED09374
:101DD0001602C09315020F900FBE809115029091CC
:101DE0001602892B09F452C003E712E023E045E50F
:101DF00050E063E671E08AE599E00E94A90C813029
:101E000009F044C0F8942FEF3FEF30931302209372
:101E10001202809393021092180210921702A89552
:101E200020EC88E190E00FB6F894A89580936000CC
:101E30000FBE20936000A0915E02B0915F02CD9131
:101E4000CDBFDD91DEBFFF91EF91DF91CF91BF91CB
:101E5000AF919F918F917F916F915F914F913F9142
:101E60002F911F910F91FF90EF90DF90CF90BF9037
:101E7000AF909F908F907F906F905F904F903F902A
:101E80002F901F900F900FBE0F9008950E94A501F4
:101E90000E9468020E94C400FDCFE1E7F1E01382D6
:101EA000128288EE93E0A0E0B0E084839583A6835D
:101EB000B7838AE091E09183808385EC90E09587F9
:101EC000848784EC90E09787868780EC90E0918B04
:101ED000808B81EC90E0938B828B82EC90E0958BF1
:101EE000848B86EC90E0978B868B118E128E138EEE
:101EF000148E0895EE0FFF1F0590F491E02D0994C4
:101F0000CF93DF938230910510F482E090E0E0916E
:101F10009602F091970220E030E0C0E0D0E03097E8
:101F200011F14081518148175907C0F048175907EE
:101F300061F482819381209719F09B838A832BC05F
:101F4000909397028093960226C02115310519F0CF
:101F50004217530718F49A01BE01DF01EF01028016
:101F6000F381E02DDCCF2115310509F1281B390B58
:101F70002430310590F412968D919C911397611540
:101F8000710521F0FB019383828304C09093970233
:101F900080939602FD01329644C0FD01E20FF31FCB
:101FA00081939193225031092D933C933AC0209113
:101FB000940230919502232B41F42091020130913B
:101FC00003013093950220939402209100013091F7
:101FD00001012115310541F42DB73EB740910401AF
:101FE00050910501241B350BE0919402F09195026C
:101FF000E217F307A0F42E1B3F0B2817390778F0E0
:10200000AC014E5F5F4F2417350748F04E0F5F1F3E
:1020100050939502409394028193919302C0E0E023
:10202000F0E0CF01DF91CF9108950F931F93CF93ED
:10203000DF93009709F48CC0FC013297138212825F
:1020400000919602109197020115110581F42081EB
:102050003181820F931F20919402309195022817AD
:10206000390779F5F0939502E093940271C0D80195
:1020700040E050E0AE17BF0750F412962D913C910E
:102080001397AD012115310509F1D901F3CF9D0158
:10209000DA013383228360817181860F971F821753
:1020A000930769F4EC0128813981260F371F2E5FD1
:1020B0003F4F318320838A819B8193838283452B89
:1020C00029F4F0939702E093960242C01396FC9392
:1020D000EE931297ED01499159919E01240F351FFE
:1020E000E217F30771F480819181840F951F0296A6
:1020F00011969C938E938281938113969C938E93D9
:102100001297E0E0F0E0D80112968D919C91139720
:10211000009719F0F8018C01F6CF8D919C919801F0
:102120002E5F3F4F820F931F2091940230919502B2
:102130002817390769F4309729F410929702109202
:10214000960202C0138212821093950200939402A9
:10215000DF91CF911F910F91089581E090E0F89465
:102160000C94C210FB01DC0102C001900D924150A1
:102170005040D8F70895DC0101C06D9341505040A4
:08218000E0F70895F894FFCF89
:10218800000098028000000000003C01B102B80085
:102198009600AA00830153657269616C20746173AB
:1021A8006B2077696C6C20736C65657020666F7244
:1021B80020313530306D73202E2E2E000D0A00533D
:1021C8006D656462794442004C6F63616C5365725B
:1021D80069616C004C6F63616C54656D70004944B3
:0C21E8004C4500546D72205376630000DB
:00000001FF
